:020000040800F2
:10000000B80B0020D13F00083D2900083F29000817
:1000100043290008472900084B2900080000000078
:100020000000000000000000000000004F29000850
:100030005129000800000000532900085529000834
:10004000EB3F0008EB3F0008EB3F0008EB3F0008E8
:10005000EB3F0008EB3F0008EB3F0008EB3F0008D8
:10006000EB3F0008EB3F0008EB3F0008EB3F0008C8
:10007000EB3F0008EB3F0008EB3F0008EB3F0008B8
:10008000EB3F0008EB3F0008EB3F0008EB3F0008A8
:10009000EB3F0008EB3F0008EB3F0008EB3F000898
:1000A000EB3F0008EB3F0008EB3F0008EB3F000888
:1000B000EB3F0008EB3F0008EB3F0008EB3F000878
:1000C000EB3F0008EB3F0008EB3F0008EB3F000868
:1000D000EB3F0008453F0008EB3F0008EB3F0008FE
:1000E000EB3F0008EB3F0008EB3F0008EB3F000848
:1000F000EB3F0008EB3F0008EB3F0008EB3F000838
:10010000EB3F0008EB3F0008EB3F0008EB3F000827
:10011000EB3F0008EB3F0008EB3F0008EB3F000817
:10012000EB3F0008EB3F0008EB3F0008EB3F000807
:10013000EB3F0008EB3F0008EB3F0008EB3F0008F7
:10014000EB3F0008EB3F0008EB3F0008EB3F0008E7
:10015000EB3F0008EB3F0008EB3F0008EB3F0008D7
:10016000EB3F0008EB3F0008EB3F0008EB3F0008C7
:10017000EB3F0008EB3F0008EB3F0008EB3F0008B7
:10018000EB3F0008EB3F000800F002F800F03CF8FD
:100190000AA090E8000C82448344AAF10107DA45E2
:1001A00001D100F031F8AFF2090EBAE80F0013F0F8
:1001B000010F18BFFB1A43F0010318474C820000DF
:1001C0006C820000103A24BF78C878C1FAD8520770
:1001D00024BF30C830C144BF04680C6070470000C1
:1001E0000023002400250026103A28BF78C1FBD840
:1001F000520728BF30C148BF0B6070471FB506F0DB
:1002000019FD1FBD10B510BD06F074F81146FFF7BB
:10021000F5FF01F06BFE06F092F803B4FFF7F2FF72
:1002200003BC03F02FFE000010B504460021FE4879
:1002300005F0A1FC2146FC4805F09FFC0021FA488E
:1002400005F09DFC2146F84805F09BFC10BD10B55B
:1002500004462146F44805F08EFC0021F24805F0E2
:100260008CFC2146F04805F08AFC0021EE4805F0A0
:1002700088FC10BD10B504460021EB4805F07BFC5E
:100280000021E94805F079FC0021E74805F077FCFA
:100290000021E54805F075FC10BD70B504460D461B
:1002A0000021E14805F067FC611BDF4805F065FCB3
:1002B0000021DD4805F063FC2146DB4805F061FCC8
:1002C00070BD70B504460D460021D74805F053FCBB
:1002D0002146D54805F051FC0021D34805F04FFCDC
:1002E000611BD14805F04DFC70BD70B504460D464C
:1002F0002146CD4805F03FFC0021CB4805F03DFCF0
:10030000611BC94805F03BFC0021C74805F039FCDA
:1003100070BD70B504460D46611BC34805F02BFC4B
:100320000021C14805F029FC2146BF4805F027FC03
:100330000021BD4805F025FC70BD10B504462146DE
:10034000B94805F018FC0021B74805F016FC00215B
:10035000B54805F014FC2146B34805F012FC10BD69
:1003600010B504460021B04805F005FC2146AE4812
:1003700005F003FC2146AC4805F001FC0021AA4829
:1003800005F0FFFB10BD10B54FF47A71A74805F0DA
:10039000F2FBC82003F056FD40F26C71A34805F053
:1003A000EAFBC82003F04EFD4FF47A719F4805F038
:1003B000E2FBC82003F046FD40F26C719B4805F05B
:1003C000DAFBC82003F03EFD40F21451974805F0D7
:1003D000D4FB642003F036FD4FF4C861934805F068
:1003E000CEFB642003F02EFD4FF4FA618F4805F038
:1003F000C4FB642003F026FD40F24C418B4805F01D
:10040000BEFB4FF4FA7003F01DFD10BD10B540F2B5
:100410004C41864805F0B3FB4FF4FA6003F012FD3F
:100420004FF4FA61814805F0AAFB4FF4FA6003F03B
:1004300009FD10BDF0B52DED0C8B85B00027002611
:10044000002418E07A4830F8140000EE900AF8EE24
:10045000600AB0EE600A7748D0ED000AB8EEE01A04
:100460007548D0ED000AF8EEE00A03F001F901A9A1
:1004700021F81400641C082CE4DBBDF80A0006F027
:10048000DDF941EC1B0B9FED6D0B53EC102B06F0CF
:10049000E9F941EC190BBDF8080006F0CFF941EC81
:1004A0001D0B9FED680B53EC102B06F0DBF941ECB4
:1004B0001B0BBDF804104900BDF80620012303FB07
:1004C000021006F0A4F941EC1C0B53EC1B2B05F0B9
:1004D0006FFF41EC1A0B53EC192B05F069FF41EC4F
:1004E000180B06F065F90746BDF80C0006F0A6F9F2
:1004F00041EC1B0B9FED510B53EC102B06F0B2F9A6
:1005000041EC1A0BBDF80E0006F098F941EC1D0BFA
:100510009FED4C0B53EC102B06F0A4F941EC1B0B98
:10052000BDF812104900BDF81020012303FB021092
:1005300006F06DF941EC1C0B53EC1B2B05F038FF5A
:1005400041EC180B53EC1A2B05F032FF41EC190B60
:1005500006F02EF90646B81B3C4908603C48006886
:1005600006F055F941EC180B9FED3A0B53EC102BAC
:1005700006F078F941EC1B0B3848006806F047F9A3
:1005800041EC1D0B9FED360B53EC102B06F06AF976
:1005900041EC180B2D48006806F039F941EC1D0BB1
:1005A0009FED310B53EC102B06F05CF941EC190B6D
:1005B00053EC182B06F054FA41EC1C0B53EC1B2B9C
:1005C00005F0F6FE41EC1A0B06F0F2F8054623485A
:1005D00000681F4908601D4800682049086005B090
:1005E000BDEC0C8BF0BD70B504460D4610212048C3
:1005F00003F066FE1F49088020211D4803F060FEBD
:100600001D49088040211A4803F05AFE1B49088002
:1006100018480088012838D11748008880BB084650
:100620000088012831D12CE000080040000400407F
:1006300080040020000000200400002000000000D2
:100640000000E03F9A9999999999E93F100000209C
:10065000080000207B14AE47E17A843F0C000020A4
:100660007B14AE47E17A943F333333333333D33F94
:100670000010024046000020480000204A000020F0
:1006800003E02046FFF7E3FD22E0FE480088012852
:100690000BD1FD480088012807D1FC48008820B90B
:1006A00029462046FFF721FE12E0F648008860B98F
:1006B000F5480088012808D1F4480088012804D1B1
:1006C00029462046FFF725FE02E02046FFF7BFFD42
:1006D00070BD0021002203E0ED4800880144521C57
:1006E000062AF9DB062091FBF0F0704738B502F0DE
:1006F000A2FA02F061FAC82003F0A4FB0C23E5A2E1
:100700000021084602F0CFFB02F056FAC82003F0A1
:1007100099FB02F042FF054602F08DFA02F04CFA16
:10072000C82003F08FFB012D50D121E00C23DDA266
:100730000021084602F0B7FB02F03EFAC82003F0A1
:1007400081FBFFF7C6FFD94908600C200323009006
:1007500008461E210268192002F05BFB4FF400716D
:10076000D34803F0ADFD044614B902F016FF00E0D3
:10077000DCE700BF02F05FFA02F01EFAC82003F0C7
:1007800061FB21E00C23CBA20021084602F08BFB89
:1007900002F012FAC82003F055FBFFF79AFFC74991
:1007A00008600C200323009008461E2102681920CF
:1007B00002F02FFB4FF40071BD4803F081FD0446A9
:1007C00014B902F0EAFE00E0DCE717E00C20032396
:1007D0000090B6481E210268192002F01AFB0C2076
:1007E00003230090B5481E210268322002F011FB5D
:1007F00002F0E2F94FF47A7003F024FB38BD00B543
:100800002DED028B81B06B4602224721682003F058
:10081000BBF99DF801009DF8001040EA012000B2EC
:1008200008EE100A18EE100AC11700EB917189103A
:1008300008EE101AB8EEC80ADFEDA10A80EE201A01
:10084000F0EE418AB0EE680A01B0BDEC028B00BD4B
:1008500010B52DED028B04469FED9A0A9A4880ED63
:10086000000A23E0FFF7CBFFB0EE408A964890EDF8
:10087000000A30EE080A80ED000AD0ED000A00EE12
:10088000104AB8EEC00AF4EEC00AF1EE10FA06DD26
:100890000020FFF7EFFC642003F0D4FA07E05020BB
:1008A000FFF75EFD032003F0CDFA00BFDAE700BFDB
:1008B000BDEC028B10BD10B52DED028B04469FEDF3
:1008C000810A814880ED000A24E0FFF798FFB0EE2E
:1008D000408A7D4890ED000A30EE080A80ED000A5B
:1008E000D0ED000A00EE104AB8EEC00AF4EEC00ADD
:1008F000F1EE10FA06DD0020FFF7BCFC642003F0E7
:10090000A1FA08E014213220FFF7DBFC032003F0FA
:1009100099FA00BFD9E700BFBDEC028B10BD70B5DE
:1009200004460D46A0B2FFF71BFDA8B203F08AFAF9
:1009300000BFA0B2FFF714FD4FF400715C4803F054
:10094000BFFC62490880084600880128F1D070BDCC
:1009500070B504460D4600BFFFF76CFD4FF48051A3
:100960005B4803F0ADFC5B4908800846008801281D
:10097000F2D00020FFF77EFC322003F063FAA0B231
:10098000FFF7EEFCA8B203F05DFA00BFA0B2FFF7DC
:10099000E7FC4FF40071464803F092FC4B49088095
:1009A000084600880128F1D070BD70B504460D4698
:1009B000A0B2FFF7C2FCA8B203F044FA00BFA0B295
:1009C000FFF7BBFC4FF40071394803F079FC3F4955
:1009D0000880084600880128F1D00020FFF74AFC73
:1009E000322003F02FFA70BD70B504460D4600BFEB
:1009F000FFF720FD4FF40051354803F061FC364904
:100A00000880084600880128F2D00020FFF732FC59
:100A1000322003F017FAA0B2FFF78FFCA8B203F060
:100A200011FA00BFA0B2FFF788FC4FF40071204814
:100A300003F046FC25490880084600880128F1D0CB
:100A40000020FFF717FC70BD10B5044600BFFFF78C
:100A5000F1FC0221214803F033FC214908800421E4
:100A60001E4803F02DFC1F4908801D4800880128FE
:100A700003D1084600880128E9D03220FFF7D4FBD3
:100A8000C82031E046000020480000204A00002035
:100A90008004002050726F6772616D205374617220
:100AA00074000000546865204D6178000400002047
:100AB00000100240546865204D696E00000000205F
:100AC0000000484300000000140000204000002007
:100AD000001402402400002026000020000C0240E8
:100AE0003A0000203C00002003F0ACF900BF3220A7
:100AF000FFF79AFB0221FE4803F0E2FBFD49088064
:100B00000421FB4803F0DCFBFB490880F94800881E
:100B1000012803D1084600880128E8D03220FFF7D9
:100B200083FBC82003F08EF90020FFF7A3FB4FF4EE
:100B3000FA7003F087F9FFF726FC02F0E8FF204681
:100B4000FFF786FE0020FFF795FB4FF4FA7003F0E5
:100B500079F910BD10B5044600BFFFF76BFC022108
:100B6000E34803F0ADFBE34908800421E04803F0CB
:100B7000A7FBE1490880DF480088012803D1084627
:100B800000880128E9D03220FFF74EFBC82003F08F
:100B900059F900BF3220FFF747FB0221D44803F088
:100BA0008FFBD44908800421D14803F089FBD24946
:100BB0000880D0480088012803D108460088012811
:100BC000E8D03220FFF730FBF02003F03BF90020A3
:100BD000FFF750FB4FF4FA7003F034F902F097FF7F
:100BE0002046FFF735FE0020FFF744FB4FF4FA7074
:100BF00003F028F910BD70B506460D460024192EE5
:100C000081F07281DFE816F00008190041006800E9
:100C1000A900D6004501D802FF021B036703B503F4
:100C2000D803CB04E30546068106C5064E077607C2
:100C3000010800085F08E1083C09022D22D132209A
:100C4000FFF7F2FA4FF4487003F0FCF800BFFFF72B
:100C5000F1FB0121A64803F033FBA84908800846B0
:100C600000880128F3D000BFFFF7E4FB4FF4805168
:100C7000A34803F025FBA349088008460088012803
:100C8000F2D000BF00BF01F02FB9012D1DD0032D00
:100C900020D100BFFFF7CEFB0121954803F010FBE8
:100CA00096490880084600880128F3D000BFFFF766
:100CB000C1FB4FF48051924803F002FB9149088038
:100CC000084600880128F2D004E04FF47F70FFF757
:100CD00041FF00BF00BFD6E7042D02D0052D3AD159
:100CE00004E04FF47A70FFF7AFFE34E000BFFFF787
:100CF000A1FB02217E4803F0E3FA7E490880084602
:100D000000880128F3D0002405E0FFF793FB0120C1
:100D100003F098F8641CB4F5AF6FF6DB00BFFFF783
:100D200089FB0421724803F0CBFA73490880084616
:100D300000880128F3D000BF3220FFF775FA4FF486
:100D400080516F4803F0BCFA6E490880084600885D
:100D50000128F1D000BF00BF95E7032D28D1322034
:100D6000FFF762FA4FF4FA7003F06CF800BFFFF778
:100D700061FB04215E4803F0A3FA5F49088008463E
:100D800000880128F3D000BFFFF754FB4FF4006147
:100D90005D4803F095FA5D490880084600880128FF
:100DA000F2D00020FFF766FA642003F04BF800BF92
:100DB00000BF68E7022D2ED0062D68D1002405E083
:100DC000FFF738FB012003F03DF8641CB4F5167FF3
:100DD000F6DB00BFFFF72EFB0121454803F070FA58
:100DE00046490880084600880128F3D00020FFF714
:100DF00041FA322003F026F800BFFFF71BFB4FF447
:100E00008061414803F05CFA414908800846008847
:100E10000128F2D03BE000BFFFF70CFB4FF48061EC
:100E2000374803F04DFA3B490880084600880128FE
:100E3000F2D000BF3220FFF7F7F94FF4804130487D
:100E400003F03EFA34490880084600880128F1D0B2
:100E50000020FFF70FFA3220FFF7E6F9C82002F072
:100E6000F1FF0020FFF706FA4FF4FA7002F0EAFFF4
:100E700000BFFFF7DFFA4FF48051214803F020FA5A
:100E800020490880084600880128F2D000BF00BF32
:100E9000F9E6092D7CD006DC052D09D0072D4ED0B2
:100EA000082D4BD18AE0112D73D0142DF9D124E1F6
:100EB00000BFFFF7BFFA01210D4803F001FA0F4907
:100EC0000880084600880128F3D00020FFF7D2F9F7
:100ED00000BFFFF7AFFA4FF48051094803F0F0F973
:100EE00008490880084600880128F2D0002015E053
:100EF000000C02403A0000203C0000203800002096
:100F00000014024024000020001002404400002091
:100F1000420000202000002028000020FFF7AAF94E
:100F200000BFFFF787FA4FF48061FE4803F0C8F96D
:100F3000FD490880084600880128F2D03AE100BF48
:100F4000FFF778FA4FF40061F84803F0B9F9F8496F
:100F50000880084600880128F2D00020FFF78AF9AF
:100F60004FF4FA61F34804F00AFE642002F06AFFCD
:100F700000BFFFF75FFA4FF40071EC4803F0A0F9EF
:100F8000ED490880084600880128F2D0002409E0D5
:100F900019E07BE032216420FFF725FB012002F0FD
:100FA00051FF641CB4F5167FF4DB40F24C41E1487C
:100FB00004F0E5FD642002F045FFFBE040F2F23072
:100FC000FFF7C8FDF6E000BFFFF734FA4FF48041A9
:100FD000D64803F075F9D9490880084600880128E9
:100FE000F2D00020FFF746F94FF42F7002F02AFFED
:100FF0004FF40061CD4803F063F9D14908800846F9
:10100000008828BB0020088000BF32216420FFF741
:10101000EAFA2021C34803F053F9CA490880084678
:1010200000880128F1D000BF32210846FFF7DBFA23
:101030004FF40051BD4803F043F9C3490880084606
:1010400000880128F0D0C8215020FFF7AEFC1CE03A
:101050000120BB4908803220FFF7E6F84FF4FA7010
:1010600002F0F0FE00BFFFF7E5F90121B74803F0F9
:1010700027F9B7490880084600880128F3D00020E6
:10108000FFF7F8F8322002F0DDFE93E000BFFFF733
:10109000D1F90821AD4803F013F9AE49088008469C
:1010A00000880128F3D0002405E0FFF7C3F90120F0
:1010B00002F0C8FE641CB4F5167FF6DB00BFFFF734
:1010C000B9F90421A14803F0FBF8A34908800846B8
:1010D00000880128F3D00020FFF7CCF800BFFFF70D
:1010E000A9F94FF400618F4803F0EAF89B490880A2
:1010F000084600880128F2D05CE000BFFFF79AF9AB
:101100004FF48041894803F0DBF88C490880084699
:1011100000880128F2D00020FFF7ACF84FF42F70C0
:1011200002F090FE4FF40061804803F0C9F88C494A
:1011300008800846008828BB0020088000BF3221B4
:101140005020FFF750FA2021764803F0B9F87D4986
:101150000880084600880128F1D000BF32210846E7
:10116000FFF741FA4FF40051704803F0A9F87649AF
:101170000880084600880128F0D0C8215020FFF7D9
:1011800014FC16E03220FFF74FF84FF4FA7002F02B
:1011900059FE00BFFFF74EF901216C4803F090F8AB
:1011A0006B490880084600880128F3D00020FFF72B
:1011B00061F800BF00BF66E5062D22D100BF3221D5
:1011C0009620FFF710FA2021564803F079F85D4980
:1011D0000880084600880128F1D00020FFF74AF86F
:1011E00000BF32210846FFF7FEF94FF400514F4887
:1011F00003F066F854490880084600880128F0D0BA
:1012000000BF00BF3FE5062D02D0092D15D113E028
:1012100000BFFFF70FF901214C4803F051F84C498A
:101220000880084600880128F3D00020FFF722F844
:10123000322002F007FE00E000BF00BF23E50A2DC8
:1012400006D00B2D09D00C2D1CD0142D41D132E02D
:101250004FF47F70FFF77EFC3BE000BFFFF7EAF83A
:1012600001213A4803F02CF83949088008460088E3
:101270000128F3D03220FEF7D7FF4FF4967002F02A
:10128000E1FD26E0002405E0FFF7D4F8012002F09C
:10129000D9FD641CB4F5C87FF6DB00BFFFF7CAF8C0
:1012A00008212A4803F00CF82A49088008460088DB
:1012B0000128F3D00DE000BFFFF7BCF80821234858
:1012C00002F0FEFF23490880084600880128F3D079
:1012D00000BF00BFD7E4092D49D13220FEF7A4FF9B
:1012E0004FF4FA7002F0AEFD00BFFFF7A3F8012142
:1012F000164802F0E5FF16490880084600880128D4
:10130000F3D00020FEF7B6FF00BF3220FEF78CFFBF
:101310004FF48051054802F0D3FF12490880084677
:10132000008821E00010024042000020001402402A
:1013300022000020000400401E00002028000020A1
:101340002A0000204800002026000020000C024057
:10135000380000203E0000203C0000204400002017
:101360002C000020240000200128CED000BF00BFA8
:1013700089E40C2D1ED100BFFFF75CF80121FE4867
:1013800002F09EFFFD490880084600880128F3D03E
:1013900000BFFFF74FF84FF48051F94802F090FF7B
:1013A000F8490880084600880128F2D00020FEF79E
:1013B00061FF00BF00BF66E40D2D2ED0112D02D0BD
:1013C000142D29D18EE000BFFFF734F84FF480418F
:1013D000EB4802F075FFEC490880084600880128B8
:1013E000F2D00020FEF746FF4FF4FA7002F02AFD1B
:1013F0003220FEF719FF4FF4FA7002F023FD00BF10
:10140000FFF718F80121DC4802F05AFFDB49088099
:10141000084600880128F3D0BFE0002405E0FFF76C
:1014200009F8012002F00EFD641C642CF7DBC821D2
:101430003220FFF7D9FA4FF4FA61D44804F09FFB49
:10144000642002F0FFFC00BFFEF7F4FF4FF40071D0
:10145000CB4802F035FFCE490880084600880128B5
:10146000F2D0002407E032210846FFF7BCF8012043
:1014700002F0E8FC641C642CF5DB40F24C41C348EC
:1014800004F07DFB642002F0DDFC00BF3221084641
:10149000FFF7A9F84FF48051B94802F011FFB9499C
:1014A0000880084600880128F0D00020FEF7E2FE00
:1014B000C8213220FFF733FA00BFFEF7BBFF4FF41D
:1014C0008051AF4802F0FCFEAE4908800846008813
:1014D0000128F2D00020FEF7CDFE01213220FFF7D7
:1014E0001EFA5AE0C8213220FFF77EFA4FF4FA6163
:1014F000A64804F044FB642002F0A4FC00BFFEF701
:1015000099FF4FF400719E4802F0DAFEA04908806E
:10151000084600880128F2D0002407E0322108465E
:10152000FFF761F8012002F08DFC641C642CF5DBF0
:1015300040F24C41954804F022FB642002F082FC0A
:1015400000BF32210846FFF74EF84FF480518C4817
:1015500002F0B6FE8B490880084600880128F0D0CA
:101560000020FEF787FEC8213220FFF7D8F900BF20
:10157000FEF760FF4FF48051814802F0A1FE8149DF
:101580000880084600880128F2D00020FEF772FE8D
:1015900001213220FFF7C3F900BF00BF09E40C2D81
:1015A00004D00F2D10D0102D0DD17BE000BFFEF721
:1015B00041FF0821704802F083FE76490880084602
:1015C00000880128F3D000E100BFFEF733FF0121BE
:1015D000694802F075FE69490880084600880128BC
:1015E000F3D0002405E0FEF725FF012002F02AFCDD
:1015F000641CB4F5AF7FF6DB00BFFEF71BFF0121D3
:101600005D4802F05DFE5D490880084600880128BB
:10161000F3D00020FEF72EFEC8213220FFF798F904
:101620004FF4FA61594804F0AAFA642002F00AFC67
:1016300000BFFEF7FFFE4FF40071514802F040FE7C
:1016400053490880084600880128F2D0002407E0AA
:1016500032210846FEF7C7FF012002F0F3FB641CAD
:10166000642CF5DB40F24C41484804F088FA6420D1
:1016700002F0E8FB00BF32210846FEF7B4FF4FF44A
:1016800080513F4802F01CFE3E4908800846008811
:101690000128F0D00020FEF7EDFDC8213220FFF731
:1016A0003EF992E000BFFEF7C5FE0121324802F08C
:1016B00007FE32490880084600880128F3D000243C
:1016C00005E0FEF7B7FE012002F0BCFB641CB4F598
:1016D000AF7FF6DB00BFFEF7ADFE0121264802F02A
:1016E000EFFD26490880084600880128F3D0002035
:1016F000FEF7C0FDC8213220FFF72AF94FF4FA6146
:10170000224804F03CFA642002F09CFB00BFFEF784
:1017100091FE4FF400711A4802F0D2FD1C49088076
:10172000084600880128F2D0002407E0322108464C
:10173000FEF759FF012002F085FB641C642CF5DBE9
:1017400040F24C41114804F01AFA642002F07AFB8E
:1017500000BF32210846FEF746FF4FF4805108488B
:1017600002F0AEFD07490880084600880128F0D045
:101770000020FEF77FFD0FE0000C02403800002043
:101780000014024024000020280000200004004033
:101790001E0000203E000020C8213220FFF705F97E
:1017A00000BFFEF747FE0121F74802F089FDF74927
:1017B0000880084600880128F3D00020FEF75AFD73
:1017C000C8213220FFF7C4F800BF00BF8CE30D2D05
:1017D00004D0102D40D0162D5AD10DE000BFFEF7D9
:1017E00029FE0821E84802F06BFDE9490880084617
:1017F00000880128F3D04BE000BFFEF71BFE4FF43A
:101800008061E44802F05CFDE349088008460088F6
:101810000128F2D00020FEF72DFD00BF3220FEF798
:1018200003FD4FF48051DB4802F04AFDDB4908809C
:10183000084600880128F1D04FF4FA70FFF73BF812
:10184000002406E03220FEF7EFFC012002F0FAFA55
:10185000641C642CF6DB1BE000BFFEF7EBFD4FF4CD
:101860008061CF4802F02CFDCE49088008460088F0
:101870000128F2D000BFFEF7DDFD0121C24802F0D1
:101880001FFDC2490880084600880128F3D000BF28
:1018900000BF29E30D2D02D00E2D34D125E000BF6D
:1018A000FEF7C8FD0121B84802F00AFDB7490880DB
:1018B000084600880128F3D0002405E0FEF7BAFDB1
:1018C000012002F0BFFA641CB4F5AF7FF6DB00BF65
:1018D000FEF7B0FD0821AC4802F0F2FCAC490880EC
:1018E000084600880128F3D00DE000BFFEF7A2FDF6
:1018F0000121A54802F0E4FCA449088008460088BC
:101900000128F3D000BF00BFEEE2062D02D0092D62
:101910003DD12BE000BFFEF78DFD4FF480419D4887
:1019200002F0CEFCA0490880084600880128F2D0C9
:101930000020FEF79FFCC82002F084FA3220FEF758
:1019400073FC4FF4FA7002F07DFA00BFFEF772FDEF
:1019500008218D4802F0B4FC8D49088008460088B3
:101960000128F3D00020FEF785FC10E000BFFEF751
:1019700061FD0821844802F0A3FC854908800846DF
:1019800000880128F3D00020FEF774FC00BF00BFE0
:10199000AAE20C2D04D0122D40D0132D3DD17AE0B7
:1019A00000BFFEF747FD4FF480417A4802F088FC03
:1019B0007D490880084600880128F2D00020FEF703
:1019C00059FC4FF4FA7002F03DFA3220FEF72CFC7D
:1019D0004FF4FA7002F036FA00BFFEF72BFD4FF419
:1019E00000516C4802F06CFC704908800846008881
:1019F0000128F2D000BFFEF71DFD0821624802F069
:101A00005FFC63490880084600880128F3D0002065
:101A1000FEF730FC642002F015FA41E000BFFEF74B
:101A200009FD4FF400615B4802F04AFC6049088000
:101A3000084600880128F2D00020FEF71BFC4FF476
:101A4000FA615C4804F09BF8642002F0FBF900BFE7
:101A5000FEF7F0FC4FF400714E4802F031FC56499D
:101A60000880084600880128F2D0002407E03221CF
:101A70006420FEF7B8FD012002F0E4F9641CB4F51F
:101A8000167FF4DB40F24C414A4804F078F86420B9
:101A900002F0D8F904E04FF47A70FFF75BF800BF6A
:101AA00000BF21E2112D23D100BF32219620FEF785
:101AB0009AFD4FF480713A4802F002FC3F490880D9
:101AC000084600880128F0D00020FEF7D3FB00BFB5
:101AD00032210846FEF787FD4FF480512D4802F071
:101AE000EFFB2E490880084600880128F0D000BF8F
:101AF00000BFF9E1052D7DD14FF4E170FEF794FBB5
:101B00004FF4FA7002F09EF900BFFEF793FC042137
:101B10001D4802F0D5FB2A490880084600880128A4
:101B2000F3D00020FEF7A6FB00BF3220FEF77CFBBF
:101B30004FF40051174802F0C3FB1C4908800846C7
:101B400000880128F1D0002405E0FEF773FC012095
:101B500002F078F9641CB4F5967FF6DB00BFFEF75F
:101B600069FC4FF480510B4802F0AAFB0B49088036
:101B7000084600880128F2D00020FEF77BFB642095
:101B800002F060F9002424E0000C0240380000203C
:101B90003E0000200014024020000020240000200D
:101BA00000100240420000202800002026000020F3
:101BB00022000020000400401E00002048000020F9
:101BC0003C0000203220FEF72FFB012002F03AF902
:101BD000641CC82CF6DB00BF3220FEF725FB4FF457
:101BE0008051FE4802F06CFBFD49088008460088E1
:101BF000012800E007E0EFD00020FEF73BFB642067
:101C000002F020F900BF00BF6EE1062D21D0092DA2
:101C100057D100BFFEF70EFC0821F24802F050FB3E
:101C2000F1490880084600880128F3D00020FEF71B
:101C300021FB00BF3220FEF7F7FA4FF40051E748CE
:101C400002F03EFBE9490880084600880128F1D0EF
:101C500037E000BFFEF7EEFB4FF48041DF4802F0B3
:101C60002FFBE3490880084600880128F2D00020B5
:101C7000FEF700FB642002F0E5F83220FEF7D4FA0C
:101C80004FF4FA7002F0DEF800BFFEF7D3FB02213A
:101C9000D44802F015FBD74908800846008801287F
:101CA000F3D000BF3220FEF7BFFA4FF48051CB488B
:101CB00002F006FBCA490880084600880128F1D0D6
:101CC00000BF00BF10E10E2D04D0172D1AD0182D23
:101CD00079D165E0002405E0FEF7ACFB012002F0BD
:101CE000B1F8641CC82CF7DB00BFFEF7A3FB08218A
:101CF000BC4802F0E5FABC49088008460088012883
:101D0000F3D060E000BFFEF795FB0821B54802F074
:101D1000D7FAB5490880084600880128F3D000BFEB
:101D2000FEF788FB4FF40051AC4802F0C9FAAF4906
:101D30000880084600880128F2D000BFFEF77AFB31
:101D40000121A84802F0BCFAAB4908800846008887
:101D50000128F3D0002405E0FEF76CFB012002F01F
:101D600071F8641CC82CF7DB00BFFEF763FB012190
:101D70009C4802F0A5FAA04908800846008801287E
:101D8000F3D0002405E0FEF755FB012002F05AF8DD
:101D9000641CC82CF7DB4FF47A70FEF7DBFE12E010
:101DA00000BFFEF747FB4FF480618C4802F088FAD1
:101DB00092490880084600880128F2D04FF47A70D2
:101DC000FEF7C8FE00BF00BF8EE0162D56D10024DE
:101DD00005E0FEF72FFB012002F034F8641CB4F597
:101DE000FA7FF6DB00BFFEF725FB08217D4802F0F5
:101DF00067FA7D490880084600880128F3D000244E
:101E000005E0FEF717FB012002F01CF8641CC82C4B
:101E1000F7DB00BFFEF70EFB0821724802F050FA14
:101E200071490880084600880128F3D000BFFEF7FA
:101E300001FB01216B4802F043FA6F490880084614
:101E400000880128F3D000BFFEF7F4FA4FF4806158
:101E5000624802F035FA694908800846008801287E
:101E6000F2D0002406E03220FEF7DEF9012001F076
:101E7000E9FF641CB4F5FA7FF5DB00BF00BF33E077
:101E8000162D2FD1002405E0FEF7D4FA012001F031
:101E9000D9FF641CB4F5FA7FF6DB00BFFEF7CAFA7F
:101EA0004FF480614D4802F00BFA5449088008460F
:101EB00000880128F2D0002406E03220FEF7B4F9B1
:101EC000012001F0BFFF641CFA2CF6DB0020FEF7B6
:101ED000D1F94FF4FA7001F0B5FF4FF4FA70FEF744
:101EE000B7FC00BF00BF00BF00BF70BD10B54FF40E
:101EF000A06002F08DF8A82001F042FF4FF4E1301D
:101F000001F0CEFF00F0FEFF01F070FA01F030FBAF
:101F100001F03AF901F0FBFD01F0B8F85321C720B8
:101F200001F0C0FB532144F61F6001F082FCFEF774
:101F3000DDFBC1E2002032490880324908800BE015
:101F40004FF40061254802F0BBF92F49088008468C
:101F50000088012800D100E0F2E700BF2B4800888C
:101F600001287DD10221FEF746FE03210220FEF763
:101F700042FE04210320FEF73EFE03210420FEF76B
:101F80003AFE00BF3220FEF7D8F94FF40071204826
:101F900002F096F91F490880084600880128F1D010
:101FA0000020FEF767F9642001F04CFF05210320B3
:101FB000FEF721FE01213220FEF7B1FC06210520AB
:101FC000FEF719FE01213220FEF7A9FC07210620A9
:101FD000FEF711FE062107201EE00000001402405B
:101FE00024000020000C02403E00002026000020BB
:101FF000280000203A0000203800002020000020A7
:10200000320000201E0000202200002034000020AA
:102010000010024040000020FEF7EDFD01213220BB
:10202000FEF7C3FC08210620FEF7E5FD0621082087
:10203000FEF7E1FD4FF4FA713220FEF789FC092129
:102040000620FEF7D8FDFE48008801287ED1C82171
:102050003220FEF77DFC0A210920FEF7CCFD00E0CE
:1020600099E109210A20FEF7C6FD0C210920FEF79F
:10207000C2FDC8213220FEF76BFC0D210C20FEF7BB
:10208000BAFD0F210D20FEF7B6FD0E210F20FEF741
:10209000B2FDC8213220FEF75BFC16210E20FEF7B0
:1020A000AAFD17211620FEF7A6FD16211720FEF720
:1020B000A2FD18211620FEF79EFD16211820FEF71E
:1020C0009AFD0E211620FEF796FDC8215020FEF73E
:1020D0006CFC10210E20FEF78EFDC8215020FEF76B
:1020E0001EFC06211020FEF786FDC8213220FEF7D7
:1020F0002FFC11210620FEF77EFDC8213220FEF7BD
:1021000054FC12211120FEF776FD11211220FEF75A
:1021100072FDC8213220FEF702FC13211120FEF7C8
:102120006AFD05211320FEF766FDC8213220FEF767
:10213000F6FB02210520FEF75EFDC8213220FEF7E6
:1021400034FC01210220FEF756FD00E004E040F6D9
:10215000B83001F077FE1EE114210620FEF74BFD9A
:10216000B848008801287DD1C8213220FEF7F0FB55
:1021700009211420FEF73FFDC8213220FEF7CFFBD6
:102180000A210920FEF737FD09210A20FEF733FD59
:102190000C210920FEF72FFDC8213220FEF7D8FBC5
:1021A0000D210C20FEF727FD0F210D20FEF723FD4A
:1021B0000E210F20FEF71FFDC8213220FEF7C8FBBD
:1021C00016210E20FEF717FD17211620FEF713FD2E
:1021D00016211720FEF70FFD18211620FEF70BFD24
:1021E00016211820FEF707FD0E211620FEF703FD2D
:1021F000C8215020FEF7D9FB10210E20FEF7FBFC72
:10220000C8215020FEF78BFB09211020FEF7F3FCBC
:10221000C8213220FEF783FB14210920FEF7EBFCD6
:10222000C8213220FEF7E0FB06211420FEF7E3FC74
:10223000C8213220FEF773FB11210620FEF7DBFCDC
:10224000C8213220FEF7B1FB12211120FEF7D3FC8A
:1022500011211220FEF7CFFCC8213220FEF75FFBD0
:10226000132100E01BE01120FEF7C5FC052113201F
:10227000FEF7C1FCC8213220FEF751FB02210520E8
:10228000FEF7B9FCC8213220FEF78FFB01210220A6
:10229000FEF7B1FC40F6B83001F0D4FD7BE005213B
:1022A0000620FEF7A8FCC8213220FEF738FB0C21DF
:1022B0001120FEF7A0FC14210C20FEF79CFC0F213E
:1022C0000D20FEF798FC0E210F20FEF794FCC8218C
:1022D0003220FEF73DFB16210E20FEF78CFC172165
:1022E0001620FEF788FC16211720FEF784FC182123
:1022F0001620FEF780FC16211820FEF77CFC0E212C
:102300001620FEF778FCC8215020FEF708FB0D21AF
:102310000E20FEF770FCC8215020FEF765FB0C2153
:102320000D20FEF768FC11210C20FEF764FCC8218B
:102330003220FEF7F4FA12211120FEF75CFC112185
:102340001220FEF758FCC8213220FEF7E8FA1321CC
:102350001120FEF750FC05211320FEF74CFCC8218C
:102360003220FEF7DCFA02210520FEF744FCC821EA
:102370003220FEF71AFB01210220FEF73CFC01206F
:10238000314908803149088000203149088040F6F1
:10239000B83001F057FD2C48008801280AD10020F0
:1023A000FDF768FF4FF4FA6001F04CFD002026496C
:1023B0000880AFE22548008801287DD120480088A8
:1023C00001287AD10221FEF716FC03210220FEF734
:1023D00012FC04210320FEF70EFC03210420FEF76B
:1023E0000AFC00BF3220FDF7A8FF4FF40071194826
:1023F00001F066FF18490880084600880128F1D0DE
:102400000020FDF737FF642001F01CFD05210320AB
:10241000FEF7F1FB01213220FEF781FA06210520AB
:10242000FEF7E9FB01213220FEF779FA07210620A9
:10243000FEF7E1FB06210720FEF7DDFB01210DE0A1
:102440002A0000202C00002032000020360000204E
:102450003400002000100240400000203220FEF72F
:10246000A4FA08210620FEF7C6FB06210820FEF785
:10247000C2FB4FF4FA713220FEF76AFA09210620F6
:10248000FEF7B9FBC8213220FEF762FA0A210920C3
:10249000FEF7B1FB09210A20FEF7ADFB0C21092054
:1024A000FEF7A9FBC8213220FEF752FA0D210C20BD
:1024B000FEF7A1FB0F2101E02AE267E00D20FEF705
:1024C0009AFB0E210F20FEF796FBC8213220FEF763
:1024D0003FFA16210E20FEF78EFB17211620FEF77D
:1024E0008AFB16211720FEF786FB18211620FEF71F
:1024F00082FB16211820FEF77EFB0E211620FEF728
:102500007AFBC8215020FEF750FA10210E20FEF76A
:1025100072FBC8215020FEF702FA06211020FEF7B8
:102520006AFBC8213220FEF713FA11210620FEF7BC
:1025300062FBC8213220FEF738FA12211120FEF783
:102540005AFB11211220FEF756FBC8213220FEF75C
:10255000E6F913211120FEF74EFB05211320FEF7AB
:102560004AFBC8213220FEF7DAF902210520FEF7E6
:1025700042FBC8213220FEF718FA01210220FEF7A3
:102580003AFB40F6B83001F05DFCC1E1E348008859
:1025900001287DD10221FEF72EFB03210220FEF748
:1025A0002AFB04210320FEF726FB03210420FEF76B
:1025B00022FB00BF3220FDF7C0FE4FF40071D84867
:1025C00001F07EFED7490880084600880128F1D036
:1025D0000020FDF74FFE642001F034FC05210320AC
:1025E000FEF709FB01213220FEF799F906210520AB
:1025F000FEF701FB01213220FEF791F907210620A9
:10260000FEF7F9FA06210720FEF7F5FA012132203C
:10261000FEF7CBF908210620FEF7EDFA0621082087
:10262000FEF7E9FAC8215020FEF779F914210620B7
:10263000FEF7E1FAC8213220FEF78AF909211420B9
:10264000FEF7D9FAC8213220FEF769F90A210920DC
:10265000FEF7D1FA09210A20FEF7CDFA0C21092054
:10266000FEF7C9FAC8213220FEF772F90D210C20BD
:10267000FEF7C1FA0F210D20FEF7BDFA0E210F2043
:10268000FEF7B9FAC8213220FEF762F9162100E000
:102690006BE00E20FEF7AFFA17211620FEF7ABFA1B
:1026A00016211720FEF7A7FA18211620FEF7A3FA25
:1026B00016211820FEF79FFA0E211620FEF79BFA2E
:1026C000C8215020FEF771F910210E20FEF793FA71
:1026D000C8215020FEF723F909211020FEF78BFABC
:1026E000C8213220FEF71BF914210920FEF783FAD6
:1026F000C8213220FEF778F906211420FEF77BFA74
:10270000C8213220FEF70BF911210620FEF773FADB
:10271000C8213220FEF749F912211120FEF76BFA89
:1027200011211220FEF767FAC8213220FEF7F7F8D0
:1027300013211120FEF75FFA05211320FEF75BFA43
:10274000C8213220FEF7EBF802210520FEF753FAEC
:10275000C8213220FEF729F901210220FEF74BFAA9
:1027600040F6B83001F06EFBD2E002210120FEF706
:1027700042FA03210220FEF73EFA04210320FEF76D
:102780003AFA03210420FEF736FA00BF3220FDF7A3
:10279000D4FD4FF40071624801F092FD6149088058
:1027A000084600880128F1D00020FDF763FD642071
:1027B00001F048FB05210320FEF71DFA012132201C
:1027C000FEF7ADF806210520FEF715FA01213220AB
:1027D000FEF7A5F807210620FEF70DFA06210720CF
:1027E000FEF709FA01213220FEF7DFF80821062062
:1027F000FEF701FA06210820FEF7FDF900BFFDF7FC
:1028000019FE4FF48051484801F05AFD47490880AD
:10281000084600880128F2D005210620FEF7EBF9D2
:10282000C8213220FEF77BF80C211120FEF7E3F9D6
:1028300014210C20FEF7DFF90F210D20FEF7DBF944
:102840000E210F20FEF7D7F9C8213220FEF780F8BD
:1028500016210E20FEF7CFF917211620FEF7CBF92F
:1028600016211720FEF7C7F918211620FEF7C3F925
:1028700016211820FEF7BFF90E211620FEF7BBF92E
:10288000C8215020FEF74BF80D210E20FEF7B3F9BA
:10289000C8215020FEF7A8F80C210D20FEF7ABF957
:1028A00011210C20FEF7A7F9C8213220FEF737F8D6
:1028B00012211120FEF79FF911211220FEF79BF93A
:1028C000C8213220FEF72BF813211120FEF793F9CF
:1028D00005211320FEF78FF9C8213220FEF71FF8DB
:1028E00002210520FEF787F9C8213220FEF75DF8A6
:1028F00001210220FEF77FF901200D4908800D49D2
:10290000088000200C49088040F6B83001F09AFA9F
:10291000FFF710BB00BF002010BD00002C000020FE
:10292000001002404000002000140240240000205B
:10293000320000203600002034000020704700BF25
:10294000FEE700BFFEE700BFFEE700BFFEE77047FF
:1029500070477047704700000CB500200190009050
:102960007648006840F480307449086000BF7348BE
:10297000006800F4003000900198401C019000981D
:1029800018B90198B0F5A04FF1D16C48006800F477
:10299000003010B10120009001E00020009000986C
:1029A000012846D165484030006840F080506349B6
:1029B000403108606248006840F440406049086067
:1029C0005E48083000685D490831086008460068C4
:1029D00040F4004008600846006840F4A0500860D9
:1029E0005848091F0860081F006840F08070091FE0
:1029F000086000BF5148006800F000700028F9D05E
:102A000040F20570504908604C480830006820F0DA
:102A100003004A49083108600846006840F0020097
:102A2000086000BF45480830006800F00C00082826
:102A3000F8D10CBD10B54548006840F4700043491A
:102A400008603E48006840F001003C4908600020F2
:102A50003A4908310860394800683D49084037491B
:102A600008603C48091D0860081F006820F48020A9
:102A7000091F0860002031490C310860FFF76CFF26
:102A80004FF0006031498039086010BD70B50020FA
:102A90000022022300240221284D08352D6805F06C
:102AA0000C0020B1042806D0082834D107E02A4DB4
:102AB0002A4E356033E02A4D284E35602FE01F4DF9
:102AC0002D1D2D68C5F380541C4D2D1D2D6805F05E
:102AD0003F0154B1224DB5FBF1F5184E361D366855
:102AE000C6F3881605FB06F209E01B4DB5FBF1F5B0
:102AF000124E361D3668C6F3881605FB06F20F4DDA
:102B00002D1D2D68C5F301456D1C6B00B2FBF3F55F
:102B1000124E356003E0104D104E356000BF00BF0F
:102B2000064D08352D68C5F303150E4E705D0B4D2F
:102B30002D68C540094E356070BD00000038024068
:102B40000070004008544007003C024088ED00E05F
:102B5000FFFFF6FE103000240024F4005000002097
:102B600000127A005400002010B5FE4B19600023BB
:102B7000FD4CC4F8A832002214E00023FB4C236073
:102B800000F080031BB10123241D236003E0002318
:102B9000F64C241D23600123F44C23604306180ED9
:102BA000531CDAB2082AE8DB0123EE4C241D236013
:102BB000ED4CC4F8A43210BD30B500241CE004F183
:102BC000B001C8B20021FFF7CFFF00210846FFF790
:102BD000CBFF00211020FFF7C7FF002508E0E449E4
:102BE00001EBC501085D0121FFF7BEFF681CC5B2FE
:102BF000802DF4DB601CC4B2082CE0DB30BD00B5D6
:102C000000218D20FFF7B0FF00211420FFF7ACFF5B
:102C10000021AF20FFF7A8FF00BD00B500218D20E7
:102C2000FFF7A2FF00211020FFF79EFF0021AE203A
:102C3000FFF79AFF00BD30B500240CE0002506E048
:102C40000020CB4901EBC5010855681CC5B2802D99
:102C5000F6DB601CC4B2082CF0DBFFF7ADFF30BD23
:102C6000F0B5144600267F2801DC3F2900DDF0BDC9
:102C70000B46CF1701EB5777FF10C7F10707FAB2E2
:102C8000CF1701EB5777FF10A1EBC707FDB2C5F1D6
:102C900007070123BB40DEB24CB1B54B03EBC003C9
:102CA0009B5C3343B24F07EBC007BB5408E0B04B0B
:102CB00003EBC0039B5CB343AD4F07EBC007BB54B2
:102CC00000BFD4E72DE9F04706460F4690469946E7
:102CD000DDF820A034460CE03D4606E05246294689
:102CE0002046FFF7BDFF681CC5B24D45F6DD601CF0
:102CF000C4B24445F0DDFFF75FFFBDE8F0872DE982
:102D0000F84F80460F4616461C46BA462046E31743
:102D100004EB5373DB1021464FEAE47C04EB5C7C4C
:102D20004FEAEC0CA4EBCC0CBCF1000F02D04FF03E
:102D3000010C01E04FF0000C6344224604EBD27C0E
:102D40004FEA6C0C03FB0CF303F0FF0BA6F1200021
:102D5000C6B200254EE00C2C07D106EB4600854993
:102D600001EB8000405D009013E0102C05D18248FB
:102D700000EB0610405D00900BE0182C07D106EB2D
:102D8000C6007E4901EB8000405D009001E0BDE897
:102D9000F88F4FF0000927E0009800F0800028B17C
:102DA000394640460A9AFFF75BFF09E00A9808B9DE
:102DB000012000E00020024639464046FFF750FF60
:102DC00000984006000E0090781CC7B2A7EB0A00DE
:102DD000A04205D1574608F1010000F0FF0806E0C7
:102DE00009F1010000F0FF09B9F1080FD4DB00BFC1
:102DF000681CC5B25D45AEDB00BFC8E710B5024632
:102E0000012000E050430B00A1F10104E1B2F9D12F
:102E100010BD2DE9FF4F81B0074691461E460E9D1D
:102E20004FF0000A002439E0301B401EC1B20A20D6
:102E3000FFF7E4FFB9FBF0F00A21B0FBF1F201FB70
:102E40001208BAF1000F16D1701EA04213DDB8F1BE
:102E5000000F0ED10120AB4605EBDB71491001FBE1
:102E600004710090C8B22B4620220299FFF747FF59
:102E700012E04FF0010A0120AB4605EBDB7149106F
:102E800001FB04710090C8B208F13001CAB22B46B0
:102E90000299FFF734FF00BF601CC4B2B442C3DB29
:102EA00005B0BDE8F08FF8B506460F4615461C463E
:102EB00021E004EBD4714910C1F18001B14202DA82
:102EC00000263819C7B2C4F14000B84204DA002025
:102ED00006460746FFF7AFFE012000902A782346FA
:102EE00039463046FFF70BFF204604EBD07106EB66
:102EF0006101CEB26D1C28787E2802DC287820285B
:102F0000D7DAF8BD1CB501215F2001F015FC4FF4A4
:102F1000E060009001208DF8040000208DF806008C
:102F200003208DF8050001208DF80700694614483C
:102F300001F064F94FF4406000906946114801F0D7
:102F40005DF90420009069460F4801F057F9102000
:102F5000009069460C4801F051F901200349091D10
:102F6000086013E0A482414200804142A80240422E
:102F700080000020486C0008BC700008AC76000897
:102F8000000C024000000240001402403C49C1F81D
:102F9000A8023C490860091F08600020091F08605A
:102FA0004FF4487000F04EFF01203749C1F8A002ED
:102FB0000021AE20FFF7D8FD0021D520FFF7D4FD7A
:102FC00000215020FFF7D0FD0021A820FFF7CCFD05
:102FD00000213F20FFF7C8FD0021D320FFF7C4FDEB
:102FE00000210846FFF7C0FD00214020FFF7BCFD8F
:102FF00000218D20FFF7B8FD00211420FFF7B4FD5C
:1030000000212020FFF7B0FD00210220FFF7ACFDDA
:103010000021A120FFF7A8FD0021C020FFF7A4FD9B
:103020000021DA20FFF7A0FD00211220FFF79CFD10
:1030300000218120FFF798FD0021EF20FFF794FD8C
:103040000021D920FFF790FD0021F120FFF78CFD32
:103050000021DB20FFF788FD00213020FFF784FDF1
:103060000021A420FFF780FD0021A620FFF77CFDB2
:103070000021AF20FFF778FDFFF7DDFD1CBD00004C
:1030800000004042A88241420080414200B58DB01C
:103090000121102001F050FB0121202001F04CFB08
:1030A0000121084601F048FB0121022001F044FB08
:1030B0007020019000208DF8080003208DF8090091
:1030C00001208DF80B0001A92A4801F097F840F281
:1030D000FE700B9000208DF8300003208DF8310039
:1030E00001208DF833000BA9234801F087F84FF435
:1030F0000060099000208DF8280003208DF8290039
:1031000001208DF82B0009A91B4801F077F8FF205A
:10311000079000208DF8200002208DF8210001206A
:103120008DF8230007A9154801F068F84FF4FE4018
:10313000059000208DF8180002208DF8190001205C
:103140008DF81B0005A90E4801F058F8F8200390EF
:1031500001208DF8100000208DF8120003208DF85A
:10316000110002208DF8130003A9064801F046F86B
:103170000DB000BD0000024000100240000C0240F3
:1031800000140240000402401CB50121084601F071
:10319000D3FA4FF44070009001208DF80400002015
:1031A0008DF8060003208DF8050001208DF807003A
:1031B00069468B4801F022F801208A4908608A4953
:1031C000C1F8A0021CBD10B58548006820F440304D
:1031D000834908600846006840F480300860012098
:1031E0008049091F08608049C1F8A402042000F04A
:1031F000E1FD00207B49091F0860042000F0DAFD92
:1032000000207949C1F8A40210BD10B574480068C7
:1032100020F44030724908600846006840F480306D
:10322000086000206F4908606F49C1F8A0020420BF
:1032300000F0C0FD01206B4908606B49C1F8A00295
:10324000042000F0B7FD10BD10B5002464480068EC
:1032500020F4403062490860084600680860012098
:103260006049091F0860042000F0A4FD01205E49A8
:10327000C1F8A402042000F09DFD07E0601CC4B268
:10328000FA2C03DDFFF7C1FF012010BD554884383B
:1032900000680028F2D15349086000BFF5E710B577
:1032A0000020504908604E48006820F440304C49E6
:1032B00008600846006840F48030086000204A49F1
:1032C000C1F8A002042000F075FD01204549086006
:1032D000042000F06FFD00204349C1F8A40210BD96
:1032E00010B500203F4908603D48006820F4403098
:1032F0003B4908600846006840F4803008600120BF
:103300003949C1F8A002042000F054FD01203549DC
:103310000860042000F04EFD00203349C1F8A402EB
:1033200010BD70B504462E48006820F440302C498A
:1033300008600846006840F4803008600020294991
:103340000860002517E0E0092649091F08606006AB
:10335000040E042000F02EFD01202349C1F8A40230
:10336000042000F027FD00201E490860042000F022
:1033700021FD681CC5B2082DE5DB70BD70B50546A2
:1033800000241748006820F44030154908600846BA
:1033900000680860002619E0002012490860042037
:1033A00000F008FD01201049C1F8A402042000F03B
:1033B00001FD6006040E0B488438006808B1601CEB
:1033C000C4B2042000F0F6FC701CC6B2082EE3DB89
:1033D00015B9FFF785FF01E0FFF761FF204670BDDB
:1033E00000000240A40240420000404200B59BB0F1
:1033F0000121880501F0A0F90121072001F09CF9C5
:103400000121080201F0F2F90020029052480390D5
:103410005248049000200590062006900020079056
:103420004FF4806008904000099080000A9040119D
:103430000B9040020C9000200D9001200E90002077
:103440000F90109002A9464801F0C8FF012144489E
:1034500001F0FEFF8020009003208DF80400002082
:103460008DF8070069463F4800F0C8FE0320009031
:103470008DF8040000208DF8070069463A4800F0F6
:10348000BDFE0720009003208DF8040000208DF879
:1034900007006946354800F0B1FE002011904FF456
:1034A00080301290801013900020149011A801F029
:1034B000FBFC4FF00070159001208DF858008DF83E
:1034C0005900002017901890199006208DF8680078
:1034D00015A921484C3801F0B8FC072301221946F0
:1034E0001D484C3801F037FD0723022208211A48F5
:1034F0004C3801F030FD07230322092116484C38CF
:1035000001F029FD072304220A2113484C3801F059
:1035100022FD072305220B210F484C3801F01BFD2B
:10352000072306220C210C484C3801F014FD012120
:1035300009484C3801F0BAFD012107484C3801F028
:10354000AAFD012104484C3801F0C5FC02484C3862
:1035500001F05DFD1BB000BD4C2001408004002047
:1035600010640240000002400004024000080240D3
:103570001CB50121102001F0DFF8E02000900020B0
:103580008DF8040003208DF8050001208DF8070058
:103590006946364800F032FE1CBD70B565E020215A
:1035A000324800F08DFE04464021304800F088FE8D
:1035B000054680212D4800F083FE0646DDB90A202D
:1035C00000F040FC4021294800F07AFE054695B9FC
:1035D00010E04021254800F073FE054655B10A2051
:1035E00000F030FC4021214800F06AFE05460DB194
:1035F000022070BDEDE7DCB90A2000F023FC202199
:103600001A4800F05DFE044694B910E020211748E6
:1036100000F056FE044654B10A2000F013FC2021AD
:10362000124800F04DFE04460CB10120E1E7EDE741
:10363000DEB90A2000F006FC80210C4800F040FEB4
:10364000064696B910E08021084800F039FE06468B
:1036500056B10A2000F0F6FB8021044800F030FE4D
:1036600006460EB10320C4E7EDE798E700100240DC
:1036700070EE411A70EEC12A81EEA22ADFED081A1F
:1036800062EE211AFDEEE11A11EE901AFF2901DD1A
:10369000FF207047002901DA0020FAE70846F8E722
:1036A00000007F4330B59FB004460D460121042041
:1036B00001F08BF80121082001F03EF84FF4805012
:1036C0001D9002208DF8780003208DF879000020ED
:1036D0008DF87A0001208DF87B001DA9C24800F00A
:1036E0008DFD02220C21C04800F013FE4FF4005063
:1036F0001B9002208DF8700003208DF871000020CF
:103700008DF8720001208DF873001BA9B64800F0F7
:1037100075FD02220D21B44800F0FBFD4FF48040FE
:10372000199002208DF8680003208DF869000020B0
:103730008DF86A0001208DF86B0019A9AA4800F0E5
:103740005DFD02220E21A84800F0E3FD4FF4004089
:10375000179002208DF8600003208DF86100002092
:103760008DF8620001208DF8630017A99E4800F0D3
:1037700045FD02220F219C4800F0CBFDA8B2ADF818
:1037800050000020ADF852001594ADF8580014A96F
:10379000964802F002F86020ADF83C000120ADF838
:1037A0003E000020ADF848000FA9904802F08AF8CA
:1037B0006020ADF828000120ADF82A000020ADF807
:1037C00034000AA9894802F0B6F86020ADF8140068
:1037D0000120ADF816000020ADF8200005A98348AF
:1037E00002F0F6F86020ADF800000120ADF802000C
:1037F0000020ADF80C0069467C4802F04FF9082122
:103800007A4802F0ECF90821784802F0F1F9082131
:10381000764802F0FAF90821744802F0FFF9012114
:10382000724802F025F80121704802F03FF81FB0FD
:1038300030BD30B59FB004460D460121022000F096
:10384000C4FF0121042000F077FF40201D900220DA
:103850008DF8780003208DF8790000208DF87A002B
:1038600001208DF87B001DA9614800F0C7FC0222F1
:1038700006215F4800F04DFD80201B9002208DF84E
:10388000700003208DF8710000208DF87200012077
:103890008DF873001BA9564800F0B0FC02220721E6
:1038A000534800F036FD4FF48070199002208DF8D7
:1038B000680003208DF8690000208DF86A0002205E
:1038C0008DF86B0019A94A4800F098FC02220821E3
:1038D000474800F01EFD4FF40070179002208DF84D
:1038E000600003208DF8610000208DF86200012047
:1038F0008DF8630017A93E4800F080FC02220921E0
:103900003B4800F006FDA8B2ADF850000020ADF82D
:1039100052001594ADF8580014A9364801F03DFF47
:103920006020ADF83C000120ADF83E000020ADF86D
:1039300048000FA92F4801F0C5FF6020ADF828000E
:103940000120ADF82A000020ADF834000AA929486A
:1039500001F0F1FF6020ADF814000120ADF8160071
:103960000020ADF8200005A9224802F031F86020BF
:10397000ADF800000120ADF802000020ADF80C0009
:1039800069461C4802F08AF808211A4802F027F913
:103990000821184802F02CF90821164802F035F9E0
:1039A0000821144802F03AF90121124801F060FFA1
:1039B0000121104801F07AFF1FB030BD1CB5012174
:1039C000084600F0B9FE4FF4C070009000208DF85A
:1039D000040003208DF8050001208DF807006946DA
:1039E000054800F00BFC1CBD000C02400008004024
:1039F00000080240000400400000024070B5054687
:103A00000C46FFF7E0FBD020FFF78BFCFFF71CFC18
:103A100018B1FFF7FAFB012070BD2846FFF781FCC3
:103A2000FFF712FC2046FFF77CFCFFF70DFC18B1F6
:103A3000FFF7EBFB0120EFE7FFF7E7FB0020EBE7E9
:103A400070B504460025BC2C01DB012510E0622C7A
:103A500001DB02250CE02A2C01DB032508E0142CF5
:103A600001DB042504E00A2C01DB052500E0062526
:103A700029461A20FFF7C2FF70BD70B50446B4F5A1
:103A80007A7F01DD4FF47A74042C00DA04244FF4B9
:103A90007A7090FBF4F0401EC5B229461920FFF75A
:103AA000ADFF0546264604EBD671C1F34F00FFF784
:103AB000C7FF70BD70B50446FFF785FBD020FFF748
:103AC00030FCFFF7C1FB2046FFF72BFCFFF7BCFBE8
:103AD000FFF779FBD120FFF724FCFFF7B5FB0020AF
:103AE000FFF74CFC0546FFF790FB284670BD10B56C
:103AF0000446E006010E1C20FFF780FF10BD10B544
:103B00000446E006010E1B20FFF778FF10BD10B53C
:103B1000FFF73AFB80216B20FFF770FF642000F075
:103B200091F900216B20FFF769FF0320FFF7E7FF02
:103B30000020FFF7DCFF3220FFF79FFF0021382035
:103B4000FFF75CFF00216A20FFF758FF00212320C8
:103B5000FFF754FF80213720FFF750FF7520FFF754
:103B6000A9FF0446682C0BD101216B20FFF746FF0B
:103B700000216C20FFF742FF3220FFF77EFF01E0BB
:103B8000012010BD0020FCE72DE9F04106460F465C
:103B900014461D46FFF717FB002141EA4601C8B253
:103BA000FFF7BFFBFFF750FB20B1FFF72EFB012013
:103BB000BDE8F0813846FFF7B4FBFFF745FBFFF7A0
:103BC00002FB012101EB4601C8B2FFF7AAFBFFF798
:103BD0003BFB0DE0012C04D10020FFF7CFFB287048
:103BE00003E00120FFF7CAFB2870601EC4B26D1C01
:103BF000002CEFD1FFF709FB0020D9E710B52DED20
:103C0000088B82B001AB022241216820FFF7BCFF84
:103C10009DF805009DF8041040EA012004B22046FA
:103C200002F0F5FD41EC1B0B9FED500B53EC102BFC
:103C300002F066FC41EC1A0B9FED4E0B53EC102B7F
:103C400002F0B6FB41EC190B02F080FB08EE100A03
:103C50009FED4A0A28EE000ABDEEC00A10EE100AD7
:103C600000B202B0BDEC088B10BD2DE9FC4104464A
:103C70000D4616466B46062243216820FFF784FF57
:103C80000746BFB99DF801009DF8001040EA0120E9
:103C900000B220809DF803009DF8021040EA012048
:103CA00000B228809DF805009DF8041040EA01202C
:103CB00000B230803846BDE8FC812DE9FC41044665
:103CC0000D4616466B4606223B216820FFF75CFF37
:103CD0000746BFB99DF801009DF8001040EA012099
:103CE00000B220809DF803009DF8021040EA0120F8
:103CF00000B228809DF805009DF8041040EA0120DC
:103D000000B230803846BDE8FC812DE9F04105461F
:103D10000E4617469846FFF756FA002141EA45013C
:103D2000C8B2FFF7FEFAFFF78FFA20B1FFF76DFA7E
:103D30000120BDE8F0813046FFF7F3FAFFF784FA7F
:103D400000240CE018F80400FFF7EBFAFFF77CFA08
:103D500018B1FFF75AFA0120EBE7601CC4B2BC426D
:103D6000F0DBFFF752FA0020E3E70000000000005C
:103D700000407540A4703D0AD74342400000C8424D
:103D800010B504466FF0040000F094F9E11704EB5D
:103D90005171C1F3C701394A11701046007800EB28
:103DA0004001C1EBC0104FF6FF7101EAC000344979
:103DB000088010BD0146314A12784A434FF0E02393
:103DC0005A6100229A611A46126942F001021A6190
:103DD00000BF4FF0E022106900F001021AB100F4B8
:103DE0008032002AF5D04FF0E022126922F0010261
:103DF0004FF0E0231A6100229A6170470146204A81
:103E000012884A434FF0E0235A6100229A611A4611
:103E1000126942F001021A6100BF4FF0E0221069FE
:103E200000F001021AB100F48032002AF5D04FF000
:103E3000E022126922F001024FF0E0231A61002211
:103E40009A61704770B504464FF4077094FBF0F028
:103E5000C6B24FF4077094FBF0F100FB114085B23D
:103E600005E04FF40770FFF7C9FF701EC6B2002EC1
:103E7000F7D115B12846FFF7C1FF70BD64000020DF
:103E800066000020014600BF704700BF4C4A128800
:103E900002F04002002AF9D0C2B2494B9A80704722
:103EA00010B588B004460121084600F045FC012108
:103EB000102000F09BFC07220921424800F029FA5B
:103EC00007220A213F4800F024FA4FF4C060069010
:103ED00002208DF81C008DF81D0000208DF81E00BA
:103EE00001208DF81F0006A9364800F087F90294DA
:103EF0000020ADF80C00ADF80E00ADF81000ADF8E4
:103F000014000C20ADF8120002A92D4800F0CFFDDE
:103F100001212B4800F053FE012240F22551284890
:103F200000F003FF25208DF8040003208DF8050024
:103F30008DF8060001208DF8070001A800F06DF84B
:103F400008B010BD10B540F225511D4800F028FF03
:103F500010B31B4800F062FEC4B21B48008800F496
:103F60000040C8B91848008800F4804060B10A2CAD
:103F700003D000201449088020E01348008840F452
:103F800000401149088019E00D2C06D10E48008828
:103F900040F480400C49088010E00B480088C0F3D2
:103FA0000D000A490C5408480088401C0649088046
:103FB00008460088C72801DD0020088010BD0000E9
:103FC00000100140000002406C0000208C04002022
:103FD0000948804709480047FEE7FEE7FEE7FEE79D
:103FE000FEE7FEE7FEE7FEE7FEE7FEE704480549D9
:103FF000054A064B70470000352A00088901000871
:10400000B8050020B80B0020B8070020B807002032
:1040100032490143324A1160704770B500210023D4
:104020000F22C4781CB32E4C246804F4E064C4F559
:10403000E064C4F30721C1F10404E3B20A41447807
:104040009C40E1B28478144021430C07210E254C9A
:1040500005786155047804F01F050124AC4005780B
:104060006D11AD0005F1E025C5F8004109E00478C7
:1040700004F01F050124AC401B4D0678761145F86D
:10408000264070BD194A0A400243154B1B1F1A6097
:10409000704739B1124A121D12680243104B1B1DA2
:1040A0001A6006E00E4A121D126882430C4B1B1D5B
:1040B0001A607047042808D14FF0E021096941F0E7
:1040C00004014FF0E022116107E04FF0E02109699F
:1040D00021F004014FF0E022116170470000FA0561
:1040E0000CED00E000E400E080E100E080FFFF1F55
:1040F00010B504469848844208D10121084600F0D2
:1041000086FB0021012000F082FB76E09348844288
:1041100008D10121022000F07AFB0021022000F0EA
:1041200076FB6AE08E48844208D10121042000F029
:104130006EFB0021042000F06AFB5EE089488442A7
:1041400008D10121082000F062FB0021082000F0C6
:104150005EFB52E08448844208D10121102000F027
:1041600056FB0021102000F052FB46E07F488442BD
:1041700008D10121202000F04AFB0021202000F07E
:1041800046FB3AE07A48844208D10121402000F001
:104190003EFB0021402000F03AFB2EE075488442AF
:1041A00008D10121802000F032FB0021802000F0A6
:1041B0002EFB22E07048844208D10121801500F0D6
:1041C00026FB0021A01500F022FB16E06B4884427C
:1041D00008D10121401500F01AFB0021601500F004
:1041E00016FB0AE06648844207D10121001500F061
:1041F0000EFB0021201500F00AFB10BDF0B50A46A9
:1042000000210023002400BF3DE0012505FA01F351
:10421000156805EA03049C4234D105684F00032663
:10422000BE40B543056015794E00B540066835437C
:1042300005601579012D02D01579022D16D18568FA
:104240004F000326BE40B543856055794E00B5400A
:10425000866835438560456801268E40B5434560D4
:10426000456896798E40B6B235434560C5684F00C3
:104270000326BE40B543C560D5794E00B540C6683B
:104280003543C560491C1029BFD3F0BD4FF6FF71FF
:1042900001600021017141718171C171704708B5E0
:1042A0004FF480320092009A0A430092009AC26151
:1042B000C161009AC261C2690092C269009208BDE0
:1042C0000246002013690B400BB1012000E00020E2
:1042D00070470146086980B2704702460020536962
:1042E0000B400BB1012000E00020704701464869F7
:1042F00080B2704701837047418370470AB10183E0
:1043000000E0418370474161704742694A40426121
:104310007047F0B5002300244D07ED0E02FA05F3B7
:10432000CE1000F1200555F826504E07F70E0F2647
:10433000BE40B543CF1000F1200646F82750CE10FE
:1043400000F1200555F8265045EA0304CE1000F18F
:10435000200545F82640F0BD000002400004024060
:1043600000080240000C024000100240001402400D
:1043700000180240001C02400020024000240240BD
:1043800000280240F948006840F00100F749086041
:104390000020F64908310860F4480068F4490840F4
:1043A000F2490860F348091D0860F348EF49843179
:1043B0000860F0481038091D0860EC48006820F4D7
:1043C0008020EA4908600020E8490C310860E7498C
:1043D0008C31086070470021E44A921C117011462C
:1043E0000870704710B501460022002300204A11D2
:1043F000012A02D1DD4C236808E0022A03D1DB4CFC
:104400007034236802E0D94C7434236801F01F0231
:10441000012494401C400CB1012000E0002010BD9C
:1044200038B5002000900024002500BF3120FFF7A0
:10443000D9FF05460098401C00900098B0F5A04FA9
:1044400001D0002DF2D03120FFF7CCFF08B10124BC
:1044500000E00024204638BD01460020C34A106811
:1044600020F0F80040EAC10010607047C3490860BE
:1044700070470021BD4A703211701170012802D0BE
:1044800004280AD104E00121B84A7032117005E015
:104490000521B64A7032117000E000BF00BF7047BE
:1044A000B7490860704770B5049C41EA821501263F
:1044B000C6EB530645EA0645054345EA0465AB4E9F
:1044C000361D356070BDAD4908667047820142EA0D
:1044D0000172A64B84331A607047A84988667047FA
:1044E00010B5830143EA016343EA02739F4C8834A9
:1044F000236010BDA14908677047A049C864704790
:1045000002460020994B0833186820F0EC6042EA1C
:1045100001031843954B083318607047024600208A
:10452000924B0833186820F0784042EA01031843A0
:104530008E4B083318607047014600208B4A0832C2
:10454000106820F003000843106070478748083067
:10455000006800F00C00704701460020834A0832D2
:10456000106820F0F00008431060704701460020FA
:104570007E4A0832106820F4E0500843106070470B
:1045800001460020794A0832106820F4604040EA71
:10459000C10010607047F0B5002100220024022500
:1045A00000260223714F08373F6807F00C0121B144
:1045B000042905D0082937D105E0724F076036E09D
:1045C000714F076033E0694F3F1D3F68C7F3805666
:1045D000664F3F1D3F6807F03F036EB16A4FB7FB60
:1045E000F3F7DFF888C10CF1040CDCF800C0CCF361
:1045F000881C07FB0CF40CE0624FB7FBF3F7DFF805
:104600006CC10CF1040CDCF800C0CCF3881C07FB77
:104610000CF4564F3F1D3F68C7F301477F1C7D00D8
:10462000B4FBF5F7076002E0564F076000BF00BF1C
:104630004E4F08373F6807F0F0010909534F7A5C85
:104640000768D7404760494F08373F6807F4E05193
:10465000890A4E4F7A5C4768D7408760434F0837D6
:104660003F6807F46041490B484F7A5C4768D74080
:10467000C760F0BD002100F44072B2F5407F0AD15E
:104680003A4A0832116821F4F811414A02401143B4
:10469000364A08321160354A70321268C0F30B0393
:1046A0001A43324B70331A607047354944390860F9
:1046B0007047334940390860704736490860704791
:1046C00001460020294A8C32106820F01F004A1E43
:1046D0001043264A8C321060704701460020234A5E
:1046E0008C32106820F4F8504A1E40EA02201F4A1B
:1046F0008C3210607047014600201C4A8C321068D2
:1047000020F4401008431060704701460020174A0B
:104710008C32106820F44000084310607047014656
:104720000020124A8C32106820F440300843106098
:10473000704719490860704739B10C4A3032126825
:1047400002430A4B30331A6006E0084A30321268DE
:104750008243064B30331A607047F9B1034A343252
:1047600012680243014B34331A601CE000380240E7
:10477000FFFFF6EA1030002400300020000047421E
:10478000800E47420024F40000127A006E000020E0
:10479000FFFCFF0F5C014742E01147428F4A12685D
:1047A00082438E4B1A60704739B18C4A121D1268D1
:1047B00002438A4B1B1D1A6006E0884A121D1268CC
:1047C0008243864B1B1D1A60704739B1834A0C32F5
:1047D00012680243814B0C331A6006E07F4A0C32A8
:1047E000126882437D4B0C331A60704739B17B4AA3
:1047F000103212680243794B10331A6006E0774A90
:10480000103212688243754B10331A60704739B109
:10481000724A243A12680243704B243B1A6006E045
:104820006E4A243A126882436C4B243B1A607047EC
:1048300039B16A4A203A12680243684B203B1A6039
:1048400006E0664A203A12688243644B203B1A60B5
:10485000704739B1614A1C3A126802435F4B1C3BF6
:104860001A6006E05D4A1C3A126882435B4B1C3BAF
:104870001A60704739B1594A143A12680243574BCB
:10488000143B1A6006E0554A143A12688243534BAF
:10489000143B1A60704739B1504A103A126802430B
:1048A0004E4B103B1A6006E04C4A103A12688243A5
:1048B0004A4B103B1A60704739B1484A1C321268A3
:1048C0000243464B1C331A6006E0444A1C3212680D
:1048D0008243424B1C331A60704739B13F4A203241
:1048E000126802433D4B20331A6006E03B4A2032F7
:1048F00012688243394B20331A60704739B1374A06
:10490000243212680243354B24331A6006E0334ADE
:10491000243212688243314B24331A60704739B114
:104920002E4A2C32126802432C4B2C331A6006E0BC
:104930002A4A2C3212688243284B2C331A60704763
:1049400039B1264A303212680243244B30331A60A0
:1049500006E0224A303212688243204B30331A601C
:104960007047012808D11D493C31096841F0080110
:104970001A4A3C32116007E018493C31096821F0BD
:104980000801164A3C321160704739B1134A273A80
:1049900012780243114B273B1A7006E00F4A273A60
:1049A000127882430D4B273B1A7070470B484030FA
:1049B000006840F080700949403108607047014646
:1049C0000020064A283A12680A400AB1012000E095
:1049D000002070470149263908707047343802407A
:1049E00010B50446FA48844208D101211020FFF78F
:1049F00052FF00211020FFF74EFF57E0F548844298
:104A000009D101214804FFF735FF00214FF40030A0
:104A1000FFF730FF4AE0F048844209D101218804C1
:104A2000FFF728FF00214FF48020FFF723FF3DE030
:104A3000EA48844209D10121C804FFF71BFF002185
:104A40004FF40020FFF716FF30E0E548844209D11B
:104A500001210805FFF70EFF00214FF48010FFF73A
:104A600009FF23E0DF48844208D101212020FFF71D
:104A700012FF00212020FFF70EFF17E0DA488442E2
:104A800009D101218807FFF7F5FE00214FF0804092
:104A9000FFF7F0FE0AE0D548844207D10121400526
:104AA000FFF7E8FE00216005FFF7E4FE10BD2DE9E9
:104AB000FF4705460E460024A14600BFA046B08928
:104AC00000B100BF2C8A24F44054F08804432C82A7
:104AD000AC8941F20C608443B08831890843718904
:104AE00008430443AC81AC8A24F44074B089044385
:104AF000AC826846FFF74FFDB548854202D0B94801
:104B0000854202D1DDF80C9001E0DDF80890A8891B
:104B100000F4004040B109EBC90000EB0910316816
:104B20004900B0FBF1F707E009EBC90000EB091001
:104B300031688900B0FBF1F76420B7FBF0F00401A5
:104B40002009642101FB1078A88900F4004040B1DD
:104B5000322000EBC800B0FBF1F000F00700044386
:104B600008E0322000EB08106421B0FBF1F000F007
:104B70000F0004432C81BDE8FF874FF416510160FC
:104B800000218180C18001810C214181002181812E
:104B9000704710B502460020108A20F470600B8820
:104BA0004C8823438C882343CC88234318431082AA
:104BB00010BD0021018041808180C180704721B1FA
:104BC000828942F40052828104E082894DF6FF73AB
:104BD0001A4082817047028B02F47F420283028B6B
:104BE0000A430283704721B1828942F400428281E4
:104BF00003E08289C2F30E028281704721B1828A6A
:104C000042F40062828204E0828A4FF2FF731A400B
:104C100082827047C1F3080282807047014688880B
:104C2000C0F308007047028A4FF6F0731A40028200
:104C3000028A0A430282704721B1828942F002024D
:104C4000828104E082894FF6FD731A4082817047A9
:104C500082894FF2FF731A40828182890A438281DE
:104C60007047028A4FF6DF731A400282028A0A43B3
:104C70000282704721B1028A42F48042028204E03B
:104C8000028A4BF6FF731A4002827047818941F015
:104C900001018181704721B1828A42F0080282823B
:104CA00004E0828A4FF6F7731A4082827047028BC3
:104CB000D2B20283028B42EA01220283704721B101
:104CC000828A42F02002828204E0828A4FF6DF73F9
:104CD0001A408282704721B1828A42F01002828299
:104CE00004E0828A4FF6EF731A4082827047828A0C
:104CF0004FF6FB731A408282828A0A43828270478F
:104D000021B1828A42F00202828204E0828A4FF656
:104D1000FD731A40828270471AB1838A0B438382E3
:104D200002E0838A8B4383827047F0B503460024F8
:104D300000260025002040F66A17B94200D100BFC6
:104D40001846C1F3421401F01F06012707FA06F5C1
:104D5000012C01D10C3004E0022C01D1103000E014
:104D600014301AB107682F43076002E00768AF43A9
:104D70000760F0BD02460020B1F5007F00D100BF02
:104D800013880B400BB1012000E00020704701F4B4
:104D90000072B2F5007F00D100BFCA4302807047A5
:104DA00070B50246002400230025002040F66A1654
:104DB000B14200D100BFC1F3421501F01F0301262B
:104DC00006FA03F3012D13D19689334017E0000052
:104DD000001001400044004000480040004C0040EA
:104DE000005000400014014000780040007C00406A
:104DF000022D02D1168A334001E0968A33400C120C
:104E0000012606FA04F41688344013B10CB10120CF
:104E100000E0002070BD10B50022002340F66A14A7
:104E2000A14200D100BF0A1201249440A3B2DC4386
:104E3000048010BD10B501210802FFF72CFD0021F0
:104E40004FF48070FFF727FD10BD30B502460020FB
:104E500000235068F84C20400D790C6844EA052482
:104E6000204350609068F54C2040D1E903542C4316
:104E70008D682C434D7944EA450420439060D06A04
:104E800020F470000C7D641EE4B2234340EA03501A
:104E9000D06230BD00210160017141718160C1604B
:104EA00001610121017570470021E54A1168E54A59
:104EB0001140D0E900231A4383681A43C3681A4398
:104EC0001143E14AC2F804137047002101604160B8
:104ED0008160C160704721B1826842F00102826046
:104EE00003E0826822F00102826070470A460021D6
:104EF0004168D64B1940114341607047416282625C
:104F000070470A460021416821F01F0111434160AA
:104F1000704738B1CA49096841F40001CA4AC2F869
:104F2000041306E0C649096821F40001C64AC2F824
:104F30000413704738B1C249096841F48001C24A7C
:104F4000C2F8041306E0BE49096821F48001BE4A94
:104F5000C2F804137047F0B504460D460020002146
:104F6000092D11DDE068A5F10A0606EB46070726C4
:104F700006FA07F18843A5F10A0606EB460603FA8E
:104F800006F10843E0600CE0206905EB45070726C1
:104F900006FA07F1884305EB450603FA06F10843D4
:104FA0002061072A0FDA606B561E06EB86071F2664
:104FB00006FA07F18843561E06EB860605FA06F147
:104FC0000843606322E00D2A0FDA206BD61F06EB40
:104FD00086071F2606FA07F18843D61F06EB8606CA
:104FE00005FA06F10843206310E0E06AA2F10D061D
:104FF00006EB86071F2606FA07F18843A2F10D0685
:1050000006EB860605FA06F10843E062F0BD81680A
:1050100041F0804181607047014600208A6802F0BB
:1050200080420AB1012000E00020704721B182686F
:1050300042F48062826003E0826822F480628260CF
:10504000704721B1826842F00202826003E0826808
:1050500022F002028260704710B50A460021002348
:10506000416821F46041531E41EA4331416010BD63
:1050700021B1426842F40062426003E0426822F4D7
:105080000062426070470146C86C80B270476C484D
:10509000001D0068704721B1826842F4807282600E
:1050A00003E0826822F480728260704721B18268D6
:1050B00042F40072826003E0826822F4007282602F
:1050C000704738B15E49096841F400515E4AC2F840
:1050D000041306E05A49096821F400515A4AC2F8FB
:1050E00004137047F0B50446154600200022002640
:1050F000092911DDE068A1F10A0707EB470C072732
:1051000007FA0CF29043A1F10A0707EB470703FAED
:1051100007F21043E0600CE0206901EB410C072727
:1051200007FA0CF2904301EB410703FA07F2104330
:105130002061A06BC0F30156EF1C06F1010CA7EB38
:105140000C0707EB870C1F2707FA0CF29043EF1CA4
:1051500006F1010CA7EB0C0707EB870701FA07F232
:105160001043A063F0BD10B50A4600210023816BF7
:1051700021F44011531E41EA0351816310BD08B56B
:10518000002300930090009B0B440093009B1A6047
:1051900008BD0A460021816821F470211143816015
:1051A00070470A460021816821F440111143816053
:1051B0007047816841F4800181607047014600209A
:1051C0008A6802F480020AB1012000E000207047E2
:1051D00021B1426842F48062426003E0426822F4F6
:1051E00080624260704721B1426842F4805242605E
:1051F00003E0426822F480524260704708B50246DC
:1052000000200090009201F12800009B18440090BB
:105210000098006880B208BD10B50B460021D9B2D5
:10522000012404FA01F11AB144680C43446002E01D
:1052300044688C43446010BDFFFEFFFCFDF7FFC0D7
:1052400004230140E030FCFF00200140FFFD3FFF50
:105250000246002013680B400BB1012000E0002043
:105260007047CA430260704770B5024600200023B1
:1052700000240B12556801268E4005EA06041568C5
:105280001D4015B10CB1012000E0002070BD0022CE
:105290000A12D34303607047016821F001010160E5
:1052A0000021016041608160C16001612121416193
:1052B000DB49884204D13D21D94A103A91608CE003
:1052C000D7491831884205D14FF47461D44A103A55
:1052D000916082E0D2493031884205D14FF4741197
:1052E000CF4A103A916078E0CD494831884205D1E3
:1052F0004FF07461CA4A103A91606EE0C84960315B
:10530000884204D1C749C64A103AD16065E0C44911
:105310007831884204D1C449C14A103AD1605CE076
:10532000BF499031884204D1C049BD4A103AD1608A
:1053300053E0BB49A831884205D14FF03D51B84AEE
:10534000103AD16049E0BA49884204D13D21B84AB7
:10535000083A116041E0B6491831884205D14FF44E
:105360007461B34A083A116037E0B149303188427C
:1053700005D14FF47411AE4A083A11602DE0AC49E2
:105380004831884205D14FF07461A94A083A11604A
:1053900023E0A7496031884204D1A249A44A121FE0
:1053A00011601AE0A2497831884204D19E49A04A8E
:1053B000121F116011E09E499031884204D19B492F
:1053C0009B4A121F116008E09949A831884204D114
:1053D0004FF03D51964A121F1160704710B50022E0
:1053E0000268944B1A40CC680B6823434C692343F2
:1053F0008C692343CC6923430C6A23434C6A2343BF
:105400008C6A23434C6B23438C6B23431A43026007
:10541000426922F00702D1E90B3423431A43426167
:105420000B6943604B6883608B68C36010BD0021CB
:10543000016041608160C160016141618161C16160
:10544000016241628162C1620163416381637047AD
:1054500021B1026842F00102026003E0026822F01A
:1054600001020260704721B1026842F4004202600A
:1054700003E0026822F400420260704721B1026832
:1054800042F02002026003E0026822F02002026083
:105490007047416070470146486880B2704722B14A
:1054A000036843F40023036003E0036823F400234C
:1054B00003600161704721B1026842F480220260FA
:1054C00003E0026822F48022026070470AB10161A1
:1054D00000E0C1607047014600200A6802F4002223
:1054E0000AB1012000E000207047014600200A6850
:1054F00002F001020AB1012000E0002070470146DD
:1055000000204A6902F03800704730B503460A4669
:1055100000200024464DAB4202D24149103901E03F
:105520004349103902F000550DB14C6800E00C6899
:10553000414D2C4004EA02050DB1012000E000209D
:1055400030BD02463A4B9A4202D23548103801E04B
:105550003748103801F000531BB1374B0B40C36084
:1055600002E0354B0B408360704710B501F08003BB
:105570004BB122B1436943F08003436103E04369C7
:1055800023F08003436180290BD02AB1036801F026
:105590001E042343036004E0036801F01E04A343D8
:1055A000036010BD70B50246002000240025204E87
:1055B000B24202D21A4B103B01E01D4B103B1F4E72
:1055C0000E4036B11E2606EAD124166806EA040506
:1055D00002E0566906F0800501F000560EB15C68E5
:1055E00000E01C68144E344004EA010616B10DB107
:1055F000012000E0002070BD02460D4B9A4202D20D
:105600000748103801E00A48103801F000531BB178
:10561000094B0B40C36002E0074B0B4083607047AF
:10562000106002403D000020400F002000003D209F
:10563000106402403F801CF07D0F7D0F3C0F3C0F3B
:1056400010B50446FE48844208D101210846FFF700
:1056500022F900210120FFF71EF99DE0B4F1804FEF
:1056600008D101210846FFF705F900210120FFF7C5
:1056700001F991E0F348844208D101210220FFF7AB
:10568000F9F800210220FFF7F5F885E0EE488442A2
:1056900008D101210420FFF7EDF800210420FFF7D5
:1056A000E9F879E0E948844208D101210820FFF7B0
:1056B000E1F800210820FFF7DDF86DE0E4488442BE
:1056C00008D101211020FFF7D5F800211020FFF7A5
:1056D000D1F861E0DF48844208D101212020FFF7A2
:1056E000C9F800212020FFF7C5F855E0DA488442C8
:1056F00008D101210220FFF7CEF800210220FFF798
:10570000CAF849E0D548844209D101210804FFF7CD
:10571000C2F800214FF48030FFF7BDF83CE0D048DC
:10572000844209D101214804FFF7B5F800214FF464
:105730000030FFF7B0F82FE0CA48844209D10121B8
:105740008804FFF7A8F800214FF48020FFF7A3F8A2
:1057500022E0C548844208D101214020FFF78AF8A1
:1057600000214020FFF786F816E0C048844208D1A7
:1057700001218020FFF77EF800218020FFF77AF8D2
:105780000AE0BB48844207D101218015FFF772F877
:105790000021A015FFF76EF810BD00220288A84B6B
:1057A00098420ED0AC4B98420BD0B0F1804F08D04D
:1057B000A44B984205D0A44B984202D0A34B9842E8
:1057C00004D14FF68F731A404B881A43A04B98426E
:1057D00007D0A04B984204D04FF6FF431A400B89E4
:1057E0001A4302804B68C3620B880385944B98422E
:1057F00002D0994B984201D18B7A03860123838290
:1058000070474FF0FF3141600021018001814180EC
:10581000817270470185828270470A4600210188A3
:105820004FF68F73194011430180704741627047F2
:10583000C16270470146486A70470146088D70474B
:1058400021B1028842F00202028004E002884FF691
:10585000FD731A400280704721B1028842F00402B1
:10586000028004E002884FF6FB731A400280704702
:1058700021B1028842F08002028004E002884FF6E3
:105880007F731A400280704702884FF6F7731A4000
:10589000028002880A430280704702884FF6FF4365
:1058A0001A40028002880A430280704721B10288B0
:1058B00042F00102028004E002884FF6FE731A40B3
:1058C0000280704770B5002400220023058C4FF63B
:1058D000FE7635400584028C8388048B4FF68F75E5
:1058E0002C40B51E2C400D882C43751E2A408D89F6
:1058F0002A434D882A43524DA84202D0564DA84211
:1059000013D14FF6F7752A40CD892A434FF6FB7520
:105910002A408D882A434FF6FF652B404FF6FF55EE
:105920002B400D8A2B434D8A2B43838004838D6843
:105930004563028470BD70B5002400220023058CED
:105940004FF6EF7635400584028C8388048B48F649
:10595000FF752C404FF6FF452C400D884FF6FF7623
:1059600006EA05252C434FF6DF752A408D8906EAA5
:1059700005152A434D8806EA05152A43304DA842ED
:1059800002D0354DA8421DD14FF67F752A40CD89F2
:105990004FF6FF7606EA05152A434FF6BF752A40F3
:1059A0008D8806EA05152A434FF6FF352B404FF246
:1059B000FF752B400D8A06EA85052B434D8A06EAC2
:1059C00085052B43838004838D688563028470BDC5
:1059D00070B5002400220023058C4FF6FF66354089
:1059E0000584028C8388848B4FF68F752C404FF68C
:1059F000FC752C400D882C434FF6FF552A408D89AD
:105A00004FF6FF7606EA05252A434D8806EA052566
:105A10002A430B4DA84202D00F4DA84238D14FF275
:105A2000FF752A40CD894FF6FF7606EA05252A4301
:105A30004FF6FF352A408D8806EA05252A4319E0EE
:105A4000000001400004004000080040000C00403D
:105A500000100040001400400004014000400140DC
:105A6000004401400048014000180040001C004074
:105A7000002000404EF6FF752B404DF6FF752B4081
:105A80000D8A06EA05152B434D8A06EA05152B43B8
:105A9000838084838D68C563028470BD70B50022E5
:105AA00000230024058C4EF6FF7635400584038CD8
:105AB0008488828B48F6FF752A404FF6FF452A40BE
:105AC0000D884FF6FF7606EA05252A434DF6FF7549
:105AD0002B408D8906EA05352B434D8806EA0535AE
